:020000040800F2
:1000000000000120E101000831020008310200086F
:10001000310200083102000831020008000000002F
:10002000000000000000000000000000111900089E
:100030003102000800000000A1190008B104000806
:1000400031020008310200083102000831020008C4
:1000500031020008310200083102000831020008B4
:1000600031020008310200083102000831020008A4
:100070003102000831020008310200083102000894
:100080003102000831020008310200083102000884
:100090003102000831020008310200083102000874
:1000A0003102000831020008310200083102000864
:1000B0003102000831020008310200083102000854
:1000C0003102000831020008310200083102000844
:1000D0003102000831020008310200083102000834
:1000E0003102000831020008310200083102000824
:1000F0003102000831020008310200083102000814
:100100003102000800000000000000003102000879
:1001100031020008310200083102000831020008F3
:1001200031020008310200083102000831020008E3
:100130003102000831020008000000000000000049
:1001400031020008310200083102000800000000FE
:10015000000000000000000000000000000000009F
:1001600031020008310200083102000831020008A3
:100170003102000831020008310200083102000893
:1001800031020008310200080000000000000000F9
:040190003102000830
:1001A00010B5054C237833B9044B13B10448AFF3B1
:1001B00000800123237010BD10000020000000000B
:1001C000C821000808B5034B1BB103490348AFF32E
:1001D000008008BD0000000014000020C8210008B5
:1001E000DFF834D0002103E00C4B5B58435004315E
:1001F0000B480C4B42189A42F6D30B4A02E00023FC
:1002000042F8043B094B9A42F9D300F059F901F046
:10021000B7FF00F05DF8FEE700000120682200084B
:10022000000000201000002010000020F40D00202D
:10023000FEE708B520214FF0904000F0FAFA642064
:1002400001F0DCF9F6E708B5012001F0D7F9FBE78A
:1002500030B5A7B00123099310230A934FF400434C
:100260000D934FF4E01302240E9306A80023069486
:100270000C940F9300F0E2FA00B1FEE70F25039013
:100280004FF480630590214601A8019502940493E0
:1002900000F082FD00B1FEE7139010A8109400F06A
:1002A0005BFE044600B1FEE700F020FE4FF47A73D7
:1002B000B0FBF3F000F0C6F9042000F0D9F92246B3
:1002C00029464FF0FF3000F089F927B030BD00001B
:1002D00000B58FB000F04CF9FFF7BAFF374B5A6901
:1002E00042F400225A615A6902F400220092009AF4
:1002F0005A6942F480025A615A6902F480020192FA
:10030000019A5A6942F400325A615A6902F4003281
:100310000292029A5A6942F480225A615B6903F49C
:1003200080230022039320214FF09040039B00F094
:100330007BFA4FF400530024099309A9204B21486C
:100340000A930B9400F0A0F92023099309A9012333
:100350004FF090400A930B940C9400F095F91A48D2
:100360001A4A84604FF4164380E80C000C23C460E2
:10037000046143618461C4610462446201F0EFF886
:10038000064600B1FEE7124C0FCC04AD0FC554F881
:10039000043B2B60314604A801F018F90D4B18609E
:1003A0000FCC09AD0FC523682B60314609A801F0B9
:1003B0000DF9094B186001F004F9FEE70010024046
:1003C0000000211000080048800D0020004400407B
:1003D000E02100087C0D0020780D0020214B07B59E
:1003E0009A6942F001029A619A6902F00102009250
:1003F000009ADA6942F08052DA61DB6903F08053D7
:1004000001930320019B00F0D7F8002211466FF002
:100410000B0000F0E3F8002211466FF00A0000F034
:10042000DDF8002211466FF0090000F0D7F8002235
:1004300011466FF0040000F0D1F8002211466FF071
:10044000030000F0CBF800220F216FF0010000F054
:10045000C5F800220F214FF0FF3000F0BFF803B0C5
:100460005DF804FB001002407FB502680F4B9A4212
:1004700018D103F5E63301A9DA6942F40032DA61F2
:10048000DB6903F400330093009B0C2301930223E8
:1004900002930023039304934FF0904007230593A6
:1004A00000F0F2F807B05DF804FB00BF0044004024
:1004B00008B500F06FF8BDE8084001F0A7B80000EB
:1004C0001549D1F8883043F47003C1F88830134BD4
:1004D0001A6842F001021A605868114A02405A60D4
:1004E0001A6822F0847222F480321A601A6822F4A8
:1004F00080221A605A6822F4FE025A60DA6A22F0F8
:100500000F02DA62186B074A02401A6300229A60EF
:100510004FF000638B60704700ED00E00010024078
:100520000CC07FF8CCFC00FF38B50E4A0E4B0546D8
:1005300018784FF47A73B3FBF0F31068B0FBF3F064
:1005400000F080F8044658B90F2D09D80246294614
:100550004FF0FF3000F042F8044B20461D6038BDDC
:10056000012038BD00000020040000200800002009
:10057000074A08B5136843F010031360032000F026
:100580001BF80F20FFF7D0FFFFF728FF002008BD62
:1005900000200240034A044B11681B780B4413608F
:1005A000704700BFF00D002004000020014B1868C8
:1005B000704700BFF00D0020074AD36823F4E063C2
:1005C0001B041B0C43F0BF63000243F4003300F430
:1005D000E0600343D360704700ED00E0174B30B597
:1005E000DC68C4F30224C4F10703251D042B28BFD3
:1005F0000423062D4FF0010505FA03F303F1FF3341
:100600008CBF033C00241940A14005FA04F4013CCE
:100610002240002842EA01024FEA0212AFBF00F175
:10062000604000F00F00064BD2B2A5BF00F561405C
:10063000D2B21A5480F8002330BD00BF00ED00E0B4
:1006400014ED00E00138B0F1807F0AD2064B074A72
:100650005860F02182F823100020072298601A6069
:1006600070470120704700BF10E000E000ED00E09F
:10067000044B1A6804280CBF42F0040222F0040262
:100680001A60704710E000E02DE9F74FD1F80080C4
:10069000DFF89091614A002338FA03F402D103B0E5
:1006A000BDE8F08F4FF0010E0EFA03FE18EA0E06B9
:1006B00000F0A6804C6824F01007022F16D14FEAF4
:1006C000D30A00EB8A0A03F0070BDAF820504FEA4E
:1006D0008B0B4FF00F0C0CFA0BFC25EA0C0C0D6980
:1006E00005FA0BF545EA0C05CAF820504FEA430A13
:1006F0000325D0F800B005FA0AF5ED4304F0030C29
:100700000BEA050B0CFA0AFC013F4CEA0B0C012F1B
:10071000C0F800C011D8876807EA050BCF6807FA50
:100720000AFC4CEA0B078760476827EA0E0EC4F301
:1007300000179F4047EA0E074760C7683D408F6833
:1007400007FA0AF73D43C560E50059D5D9F81850B6
:1007500045F00105C9F81850D9F8185023F00307DF
:1007600007F1804705F0010507F58037019503F093
:10077000030C019DBD684FEA8C0C4FF00F0E0EFA72
:100780000CFEB0F1904F25EA0E0E3BD0244DA8424E
:100790003AD005F58065A84238D005F58065A842B5
:1007A00036D005F58065A84234D005F58065A842AD
:1007B00032D005F58065A84214BF0725062505FA45
:1007C0000CF545EA0E05BD601568F74314F4803F4B
:1007D0000CBF3D4035431560556814F4003F0CBF15
:1007E0003D4035435560956814F4801F0CBF3D4073
:1007F00035439560D568A40254BF3D403543D5606C
:10080000013349E70025DAE70125D8E70225D6E7D5
:100810000325D4E70425D2E70525D0E700040140ED
:1008200000040048001002400AB1816170478162F3
:100830007047436959404161704700002DE9F34713
:10084000054618B9012002B0BDE8F0870368DF074C
:1008500011D42B689E0700F188802B681C0700F1DB
:10086000FC802B68580700F14581AA69002A40F0F6
:10087000DC810020E7E7BD4C636803F00C03042B28
:100880000AD0636803F00C03082B19D1636803F4E2
:10089000C033B3F5803F13D14FF4003393FAA3F282
:1008A000216893FAA3F3B3FA83F303F01F03012241
:1008B00002FA03F30B42CCD06B68002BC9D1C1E71D
:1008C0006B68B3F5803F1ED1236843F48033236007
:1008D000FFF76CFE4FF400368046012796FAA6F328
:1008E000226896FAA6F3B3FA83F303F01F0307FA1C
:1008F00003F31342ADD1FFF759FEA0EB08006428C3
:10090000ECD903209FE70BBB236823F480332360DB
:10091000236823F480232360FFF748FE4FF400365A
:100920008046012796FAA6F3226896FAA6F3B3FA50
:1009300083F303F01F0307FA03F3134289D0FFF791
:1009400035FEA0EB08006428ECD9DAE7B3F5A02F58
:10095000236803D143F480232360B5E723F4803375
:100960002360236823F48023B1E7804C636813F08D
:100970000C0F0AD0636803F00C03082B25D16368C1
:1009800003F4C033B3F5004F1FD1022393FAA3F24F
:10099000216893FAA3F3B3FA83F303F01F03012250
:1009A00002FA03F30B4203D0EB6893427FF44AAFA1
:1009B0002168F82393FAA3F3B3FA83F22B699340E7
:1009C00021F0F8021343236047E7EA6801260AB3DF
:1009D00096FAA6F3B3FA83F303F1845303F5841371
:1009E0009B0002271E60FFF7E1FD804697FAA7F300
:1009F000226897FAA7F3B3FA83F303F01F0306FA0A
:100A000003F31342D4D1FFF7D1FDA0EB0800022875
:100A1000ECD976E796FAA6F3B3FA83F303F184539D
:100A200003F584139B0002271A60FFF7BFFD804681
:100A300097FAA7F3226897FAA7F3B3FA83F303F0C0
:100A40001F0306FA03F313423FF407AFFFF7AEFDAF
:100A5000A0EB08000228EBD953E76A69434E4449EA
:100A600001241AB394FAA4F3B3FA83F30B449B0062
:100A700002271C60FFF79AFD804697FAA7F397FAC2
:100A8000A7F397FAA7F3726A97FAA7F3B3FA83F377
:100A900003F01F0304FA03F313427FF4E2AEFFF7FF
:100AA00085FDA0EB08000228E7D92AE794FAA4F311
:100AB000B3FA83F30B449B0002271A60FFF776FD1D
:100AC000804697FAA7F397FAA7F397FAA7F3726A03
:100AD00097FAA7F3B3FA83F303F01F0304FA03F3BF
:100AE00013423FF4BEAEFFF761FDA0EB0800022801
:100AF000E7D906E71D4CE369D90034D4E36943F034
:100B00008053E361E36903F080530193019B012665
:100B1000184F3B68DA052FD5AB68012B3DD1236A0E
:100B200043F001032362FFF741FD02278246B946E5
:100B30004FF0010897FAA7F397FAA7F3002B6CD0B0
:100B4000226A99FAA9F3B3FA83F303F01F0308FAB0
:100B500003F3134258D0002E3FF487AEE36923F02D
:100B60008053E36181E60026D2E700BF0010024017
:100B700020819010007000403B6843F480733B601C
:100B8000FFF714FD80463B68DB05C5D4FFF70EFD7B
:100B9000A0EB08006428F6D9B3E63BBB236A23F038
:100BA00001032362236A23F004032362FFF7FEFCA0
:100BB00002278246B9464FF0010897FAA7F397FA41
:100BC000A7F373B3226A99FAA9F3B3FA83F303F094
:100BD0001F0308FA03F31342BDD0FFF7E7FC41F20D
:100BE0008833A0EB0A009842E7D98AE6052B236AEE
:100BF00003D143F00403236291E723F0010323624E
:100C0000236A23F004038DE7FFF7D0FC41F2883319
:100C1000A0EB0A0098428DD973E697FAA7F3626AAF
:100C20008FE797FAA7F3626ACDE7444C636803F055
:100C30000C03082B3FF406AE022A4FF0807358D104
:100C400093FAA3F3B3FA83F303F1845303F5841304
:100C50009B0000221A60FFF7A9FC4FF00077804646
:100C6000012697FAA7F3226897FAA7F3B3FA83F35A
:100C700003F01F0306FA03F3134233D1E36A6A6AEF
:100C800023F00F031343E36262682B6AE96922F4DD
:100C900076120B43134363604FF0807393FAA3F310
:100CA000B3FA83F303F1845303F584139B004FF0ED
:100CB00000751E60FFF77AFC0126074695FAA5F33A
:100CC000226895FAA5F3B3FA83F303F01F0306FA3B
:100CD00003F313427FF4CDADFFF768FCC01B02287D
:100CE000ECD90EE6FFF762FCA0EB08000228B8D9A9
:100CF00007E693FAA3F3B3FA83F303F1845303F5FE
:100D000084139B0000221A60FFF750FC4FF000751F
:100D10000746012695FAA5F3226895FAA5F3B3FADA
:100D200083F303F01F0306FA03F313423FF4A1AD6C
:100D3000FFF73CFCC01B0228ECD9E2E500100240A2
:100D400011494B6803F00C02082A1AD14FF47012B3
:100D500092FAA2F20F20B2FA82F2C96A90FAA0F0D7
:100D6000B0FA80F001F00F0103F47013D340C140DA
:100D7000064A0748415C0748B0FBF1F1D05C4843A4
:100D800070470448704700BF00100240342200083A
:100D90004422000800127A002DE9F0410D46044675
:100DA00010B90120BDE8F0814C4A136803F0070335
:100DB0008B422ED32268910736D4D2073CD4474ABF
:100DC000136803F007039D4275D32268444D12F067
:100DD000040F7CD1130706D56B68226923F4605396
:100DE00043EAC2036B60FFF7ABFF6B68F02292FA35
:100DF000A2F2B2FA82F203F0F003D340394AD35C94
:100E0000D840394B18600F20FFF78EFB0020BDE85B
:100E1000F081136823F007030B431360136803F09A
:100E200007039942BDD1C5E72D49A0684B6823F05F
:100E3000F00303434B60C0E76268294E012A27D1C3
:100E40004FF4003393FAA3F1316893FAA3F3B3FAA2
:100E500083F303F01F0302FA03F30B42A1D073687C
:100E600023F003031A437260FFF7A0FB41F28838B6
:100E700007467368626803F00C03B3EB820F9ED0E1
:100E8000FFF794FBC01B4045F3D90320BDE8F08178
:100E9000022A0CBF4FF00073022393FAA3F13068CB
:100EA00093FAA3F3B3FA83F303F01F03012101FACA
:100EB00003F30342D2E7136823F007032B431360C5
:100EC000136803F007039D427FF46BAF7DE76B6807
:100ED000E16823F4E0630B436B607BE70020024092
:100EE000001002401C22000800000020014B18687E
:100EF000704700BF00000020084B4FF4E0625B68C1
:100F000092FAA2F2B2FA82F203F4E063D340044A06
:100F1000D35C044A1068D840704700BF00100240FC
:100F20002C22000800000020084B4FF460525B6840
:100F300092FAA2F2B2FA82F203F46053D340044A66
:100F4000D35C044A1068D840704700BF00100240CC
:100F50002C2200080000002003682DE9F347DF037E
:100F6000044623D59B4DEB69DE0000F1D780EB6989
:100F700043F08053EB61EB6903F080530193019BD5
:100F80000126954F3B68D80540F1CA802B6A13F4BF
:100F9000407340F0DA802B6A626823F44073134395
:100FA0002B621EB1EB6923F08053EB612068C3070D
:100FB00006D5884AA168136B23F003030B43136320
:100FC000870706D5834AE168136B23F440330B434C
:100FD0001363460706D57F4A2169136B23F4402328
:100FE0000B431363850606D57A4AE169136B23F038
:100FF00010030B431363810306D5764A616D536872
:1010000023F480030B435360420606D5714A216ADC
:10101000136B23F020030B431363430306D56D4A80
:10102000616A136B23F040030B431363070706D574
:10103000684A6169136B23F440130B431363C606BC
:1010400006D5644AA169136B23F440030B43136371
:10105000850506D55F4A216B536823F400030B43D3
:101060005360010606D55B4AA16AD36A23F4F8737C
:101070000B43D362C20506D5564AE16AD36A23F40C
:1010800078530B43D362C30406D5524A616B136B8A
:1010900023F480730B431363870406D54D4A216CF8
:1010A000136B23F400730B431363C60206D5494A3E
:1010B000A16B136B23F080730B431363850206D57A
:1010C000444AE16B136B23F000730B43136341023B
:1010D00006D5404A616C136B23F480630B431363A2
:1010E000020206D53B4AA16C136B23F400630B4349
:1010F0001363C30106D5374AE16C136B23F4005325
:101100000B43136310F000701CD0324A216D136B37
:1011100023F400430B431363002013E0002630E761
:101120003B6843F480733B60FFF740FA80463B68BE
:10113000D9053FF52BAFFFF739FAA0EB080064287B
:10114000F5D9032002B0BDE8F087626802F440726E
:1011500093423FF420AF296A4FF4803321F440706A
:1011600093FAA3F2DFF874E0B2FA82F272449200CA
:101170000127176093FAA3F3B3FA83F373449B0038
:1011800000221A60CA0728627FF505AFFFF70EFA42
:101190004FF002088246C14698FAA8F398FAA8F3DD
:1011A000A3B12A6A99FAA9F3B3FA83F303F01F03F0
:1011B00007FA03F313427FF4EEAEFFF7F7F941F2BB
:1011C0008833A0EB0A009842E6D9BAE798FAA8F368
:1011D0006A6AE7E70010024000700040008190104A
:1011E00038B5044605682169A268C36928680A43BE
:1011F00061690A4377491A4301400A432A606A68D1
:10120000E168206A22F440520A436A60A968A26930
:1012100021F4306102430A43AA606F4A954212D119
:1012200002F558426D49126B02F00302B3F5004F0C
:101230008A5C66D0082A19D8DFE802F0C2929E18AC
:10124000A9181818AC00664A954224D102F5E63276
:10125000126B02F44032B2F5803F00F0A08007D854
:10126000002A00F0AA80B3F5004F76D0012038BDE7
:10127000B2F5003F00F09980B2F5403FF3D1B3F5ED
:10128000004F79D16068430803F5740303F51053E8
:10129000B3FBF0F354E0534A95420ED102F5E43229
:1012A000126B02F44022B2F5802F78D0D8D9B2F573
:1012B000002F7AD0B2F5402FE0E74B4A95420ED18D
:1012C00002F5E232126B02F44012B2F5801F66D0D2
:1012D000C6D9B2F5001F68D0B2F5401FCEE7434A29
:1012E0009542C0D102F5E032126B02F44002B2F531
:1012F000800F54D0B4D9B2F5000F56D0B2F5400FDC
:10130000BCE7082A29D801A353F822F031130008BA
:1013100055130008851200085B130008A513000888
:101320005B1300085B1300085B130008B11300088F
:10133000FFF7E2FD61684A0802EB4003B3FBF1F3FB
:101340009BB2002023F00F022168C3F34203134332
:10135000CB6038BDFFF7E8FDECE701200023F1E7A3
:10136000FFF7E2FD636800EB5300B0FBF3F01A4BAC
:1013700080B2D860002038BD6268530803F5F403DA
:1013800003F59053B3FBF2F39BB2EB60F2E7FFF788
:10139000D7FC17E06268530803F50043F2E7B3F5A2
:1013A000004FF4D1FFF7CCFCC4E7B3F5004FF1D107
:1013B0006068430803F580336AE7B3F5004FB7D0A0
:1013C000FFF79AFD636800EB5300B0FBF3F080B2C7
:1013D000E860CFE7F369FFEF0038014054220008CE
:1013E0000044004000480040004C004000500040D5
:1013F000436ADA0710B506D50168846A4A6822F4A0
:10140000003222434A609C0706D50168C46A4A68D4
:1014100022F4803222434A60590706D50168046BE2
:101420004A6822F4802222434A601A0706D50168DE
:10143000446B4A6822F4004222434A60DC0606D527
:101440000168846B8A6822F4805222438A6099067C
:1014500006D50168C46B8A6822F4005222438A6070
:101460005A060FD50168046C4A6822F480122243A0
:10147000B4F5801F4A6005D14A68446C22F4C0026A
:1014800022434A601B0606D50268816C536823F428
:1014900000230B43536010BD2DE9F041069D044627
:1014A0000F46164698462168CA6937EA02030CBF00
:1014B00001220022B24202D00020BDE8F0816B1C64
:1014C000F2D09DB923681A6822F4D0721A609A6823
:1014D00022F001029A60202384F8693084F86A308F
:1014E000002384F868300320BDE8F081FFF75EF840
:1014F000A0EB08008542D6D2E4E773B50446002687
:10150000C666FFF753F823681B681A07054617D409
:1015100023681B685B070AD56FF07E4300930022A7
:101520002B464FF480012046FFF7B6FFA0B92023D9
:10153000002084F8693084F8680084F86A300CE090
:101540006FF07E430093324603464FF4001120466D
:10155000FFF7A2FF0028DBD0032002B070BD10B55A
:10156000044660B390F8693003F0FF021BB980F8BD
:101570006820FEF779FF2268242384F86930136815
:1015800023F0010313602046FFF72AFE012816D03E
:10159000636A13B12046FFF72BFF23685A6822F4D1
:1015A00090425A609A6822F02A029A601A6842F0C1
:1015B000010220461A60BDE81040FFF79EBF0120DF
:1015C00010BD08B500F0E6FB002008BD30B5B0F94D
:1015D0000840028A0B4690E8220085B0842C14BF94
:1015E0000334002403A801900094284600F002FB75
:1015F00001280CBF0398002005B030BD08B50028B5
:1016000008BF012000F014FD002008BD08B500F05F
:10161000A7FD012803D0BDE8084000F0F3B908BDDC
:1016200010B50F4B1A68824218D35C6819198842AA
:1016300001BF4168184609195960446801198A4276
:1016400007D1084909688A421FBF51681268091901
:1016500041609842026018BF186010BD1346E1E770
:101660003C0C00202C0000202DE9F041044600F045
:10167000CDFB3E493E4D0B680BBB3E4A56071FBF94
:10168000D01D20F0070002F540631B1A14BF02466C
:101690004FF440631344083B23F00703364E0B60BE
:1016A00000207060326058601860981A1360334BE5
:1016B00050601860324B18604FF000432B602F6869
:1016C000274216D1002C41D004F1080358071CBF53
:1016D00023F00703083363B1294A1668B3429046E2
:1016E00007D8254A15686868834204D809688D427E
:1016F00007D100242AE02C68002CF7D02A46254682
:10170000F1E7296814681160C21A102A0FD9E81885
:10171000410708D04FF0500383F31188BFF36F8F58
:10172000BFF34F8FFEE742606B60FFF779FF13490D
:101730006B680868F61A1F4386424FF00003C8F82A
:10174000006038BF0E6008346F602B6000F0F8FB5B
:10175000630708D04FF0500383F31188BFF36F8FF6
:10176000BFF34F8FFEE72046BDE8F0812C0000203C
:10177000300C0020300000203C0C0020380C0020F1
:10178000340C002010B5044670B3184A50F8043CDD
:101790001268134208D14FF0500383F31188BFF34E
:1017A0006F8FBFF34F8FFEE750F8081C41B14FF029
:1017B000500383F31188BFF36F8FBFF34F8FFEE7A2
:1017C00023EA020340F8043C00F020FB084A54F8E6
:1017D000043C1168A4F108000B441360FFF720FFDC
:1017E000BDE8104000F0ACBB10BD00BF300C0020C5
:1017F000340C002000F1080343604FF0FF32C36057
:101800000361002382600360704700230361704717
:1018100043684B609A688A609A685160996003686F
:1018200008610133036070470A68531C30B50AD160
:1018300003695A684A6091608B6059600368086167
:101840000133036030BD00F108035C682568AA42DB
:10185000EFD32346F9E74168826803698A608268AA
:1018600051605968884208BF5A60002202611868B6
:1018700001381860704700000A4B1B68013308D01C
:101880004FF0500383F31188BFF36F8FBFF34F8F77
:10189000FEE74FF0500383F31188BFF36F8FBFF360
:1018A0004F8FFEE70C00002006480068006880F3B8
:1018B000088862B661B6BFF34F8FBFF36F8F00DF4A
:1018C00000BF000008ED00E0DFF80C00016841F403
:1018D000700101607047000088ED00E04FF08073F8
:1018E00040F8043C074B40F80C3C21F001016FF03C
:1018F000020340F8081C40F8202C40F8243C4438EF
:10190000704700BF791800080000000000000000C8
:10191000074B19680868B0E8F04F80F30988BFF3F7
:101920006F8F4FF0000080F311887047AFF3008095
:101930004C0C00204FF0500383F31188BFF36F8FDE
:10194000BFF34F8F0A4A13680133012B13600DD187
:10195000084B1B6813F0FF0F08D04FF0500383F3C0
:101960001188BFF36F8FBFF34F8FFEE7704700BF43
:101970000C00002004ED00E0084A136843B94FF062
:10198000500383F31188BFF36F8FBFF34F8FFEE7D0
:10199000013B13600BB983F3118870470C000020E2
:1019A000EFF30980BFF36F8F154B1A681EF0100F0D
:1019B00008BF20ED108A20E9F04F10604DF8043D7B
:1019C0004FF0500080F31188BFF34F8FBFF36F8F3C
:1019D00000F08CFB4FF0000080F3118808BC196800
:1019E0000868B0E8F04F1EF0100F08BFB0EC108A86
:1019F00080F30988BFF36F8F704700BFAFF300809B
:101A00004C0C002008B54FF0500383F31188BFF34E
:101A10006F8FBFF34F8F00F001FA18B1034B4FF0F7
:101A200080521A60002383F3118808BD04ED00E0A2
:101A3000064B4FF47A721B68B3FBF2F3044A013B86
:101A40001360044B07221A60704700BF000000209B
:101A500014E000E010E000E0314B324A13B51968A1
:101A6000914208D14FF0500383F31188BFF36F8F79
:101A7000BFF34F8FFEE71A682B4B9A4208D14FF005
:101A8000500383F31188BFF36F8FBFF34F8FFEE7CF
:101A9000264B1A78D2B20192FF221A701B78244A80
:101AA000DBB28DF803309DF8033003F05003137060
:101AB000204B07221A6000219DF80300000602F166
:101AC000FF3423D401B11A601A68120202F4E062F2
:101AD0001A60019B154ADBB21370174B1A6842F467
:101AE00070021A601A6842F070421A60FFF7A0FF95
:101AF000124B00221A60FFF7E7FE114A136843F009
:101B000040431360FFF7D0FEFFF7B6FE9DF80320B9
:101B10005200D2B28DF8032001212246CCE700BF4B
:101B200000ED00E071C20F4170C20F4100E400E01F
:101B3000440C0020480C002020ED00E00C000020A8
:101B400034EF00E0064A13681968064B19B94FF0E4
:101B5000FF321A6070471268D268D2685268F8E79C
:101B6000500C0020280D0020F8B51B4B1B4E1D68A3
:101B70000446306804300F46FFF76DFE334640B927
:101B80003168174EC96A32680120884022EA000293
:101B90003260621C07D137B1196812480431BDE8C0
:101BA000F840FFF735BE2C441A68A542546007D9A7
:101BB0000D4A10681968BDE8F8400431FFF734BEDB
:101BC0000A4A106819680431FFF72EFE084B1A689C
:101BD000944238BF1C60F8BD700D00204C0C0020F2
:101BE000F80C0020480D0020540C0020500C002060
:101BF000280D00202DE9F84F4FEA820A8046504612
:101C00000F4699460B9EFFF72FFD0546002800F072
:101C100096805420FFF728FD0446002800F08C80B1
:101C2000AAF1040A056355447B1E25F0070A00F15A
:101C300034020F37597802F8011B13F8011F09B15C
:101C4000BB42F7D10A9D062D28BF06254FF0000B99
:101C5000271DE5626564384684F843B0C4F848B08F
:101C6000FFF7D3FDC5F1070504F11800FFF7CDFD1F
:101C7000C4F84CB02461A561646284F850B04A464F
:101C800041465046FFF72AFE206006B13460FFF758
:101C900051FE324B324E1A68DFF8F08001321A6082
:101CA0003568002D4ED134601B68012B1DD108EB27
:101CB00005001435FFF79EFD8C2DF8D1DFF8D0908C
:101CC000284D4846FFF796FD2846FFF793FD264826
:101CD000FFF790FD2548FFF78DFD2548FFF78AFDAA
:101CE000244BC3F80090244B1D60244A24491368F8
:101CF000086801331360E26A012505FA02F3034321
:101D000014200B6000FB02803946FFF781FDFFF7CE
:101D100033FE1C4B1B6863B13368DA6AE36A9A428C
:101D200007D2194B4FF080521A60BFF34F8FBFF3A9
:101D30006F8F2846BDE8F88F2846FFF723FD4FF048
:101D4000FF35F6E70F4B1B68002BCED13368DA6AFC
:101D5000E36A9A4298BF3460C7E700BFE40C0020F2
:101D60004C0C0020100D0020300D00205C0D0020D8
:101D7000480D0020500C0020540C0020F40C0020D2
:101D8000F80C0020440D002004ED00E0580C002069
:101D9000FC0C002013B5174B01930024009423463C
:101DA000802215491548FFF725FF012814D14FF06F
:101DB000500383F31188BFF36F8FBFF34F8F104B26
:101DC0004FF0FF321A600F4B18600F4B1C6002B0CF
:101DD000BDE81040FFF740BE013008D14FF050037E
:101DE00083F31188BFF36F8FBFF34F8FFEE702B00D
:101DF00010BD00BF240D00205822000879200008E3
:101E0000280D0020440D0020700D0020024A1368A8
:101E100001331360704700BFF00C00202DE9F84F2C
:101E20003C4B1B68002B53D13B4B1C6801341C609E
:101E3000BCB93A4B1A68126842B14FF0500383F3B1
:101E40001188BFF36F8FBFF34F8FFEE7344A1968D5
:101E5000106818601160334A136801331360FFF78C
:101E600071FE314D314F2B689C424FF0000B3ED339
:101E7000DFF8A880DFF8C490D8F80020126872BBA1
:101E80004FF0FF322A6032E006F1040A5046FFF7B5
:101E9000E2FCB16A19B106F11800FFF7DCFCF06A48
:101EA000D9F80030012202FA00F11943204BC9F899
:101EB00000104FF0140E51460EFB0030FFF7A8FC47
:101EC0003868F16AC26A914228BF4FF0010BD3E72C
:101ED000184A1368013313604FF0000B11E0D8F873
:101EE0000020D268D66871688C42CDD229603A68E9
:101EF0000F4BD16A14224A439A58022A28BF4FF046
:101F0000010B0D4A1268002A18BF4FF0010B58460A
:101F1000BDE8F88FF00C0020700D0020500C002060
:101F2000540C00202C0D0020280D00204C0C00200B
:101F3000580C0020EC0C0020740D0020F80C002040
:101F40002DE9F843314C236843B94FF0500383F334
:101F50001188BFF36F8FBFF34F8FFEE7FFF7EAFCE7
:101F60002368013B236024682CB10024FFF704FDA3
:101F70002046BDE8F883264B1B68002BF5D0DFF820
:101F8000A890244FDFF8A480D9F80030E3B90CB151
:101F9000FFF7D8FD204D2C6844B1204E0127FFF7F4
:101FA0003DFF00B13760013CF9D12C601B4B1B6831
:101FB000002BDAD01A4B4FF080521A60BFF34F8FCC
:101FC000BFF36F8F0124D1E7D9F80C30DC68261DF0
:101FD00004F11800FFF73FFC3046FFF73CFCE26AD3
:101FE0003968012505FA02F314200B4300FB028037
:101FF00031463B60FFF70CFC0A4BE26A1B68DB6A68
:102000009A4224BF054B1D60BEE700BFF00C0020C4
:10201000E40C0020F80C0020EC0C0020740D0020D3
:1020200004ED00E04C0C0020300D0020580C002086
:1020300008B540B90E4B4FF080521A60BFF34F8F76
:10204000BFF36F8F08BD0B4B196841B14FF05003C0
:1020500083F31188BFF36F8FBFF34F8FFEE7FFF756
:10206000D5FEFFF781FDFFF76BFF0028E2D008BD2A
:1020700004ED00E0F00C002008B5174E174C236863
:1020800063B9174B1B68012BF8D9164B4FF08052E0
:102090001A60BFF34F8FBFF36F8FEFE7FFF7B6FE06
:1020A0003568FFF74DFF002DE9D0FFF743FCF368DB
:1020B000DD68281DFFF7CFFB0B4A1368013B136057
:1020C0002368013B2360FFF757FC286BFFF75AFB9F
:1020D0002846FFF757FBD2E75C0D0020E80C0020F4
:1020E000580C002004ED00E0E40C0020174B1A68A7
:1020F000174B10B512B101221A6010BD1A60154BB2
:102100001B68B3FA83F3DBB2C3F11F031422124935
:102110005A4388188C5844B94FF0500383F3118800
:10212000BFF36F8FBFF34F8FFEE7446808326468D8
:1021300044600A44944204BF62684260142202FB75
:1021400003135B68DA68054BD6E700BFF00C00208C
:10215000740D0020F80C0020580C00204C0C0020BE
:10216000054B1B6833B1054B1B68002B0CBF0220CD
:102170000020704701207047440D0020F00C002023
:1021800070B50D4E0D4CA41BA4100025A54209D11D
:102190000B4E0C4C00F018F8A41BA4100025A5420F
:1021A00005D170BD56F8253098470135EEE756F851
:1021B000253098470135F2E76022000860220008C8
:1021C0006022000864220008F8B500BFF8BC08BC13
:1021D0009E467047F8B500BFF8BC08BC9E467047E5
:1021E0001022000847020008000000000000000064
:1021F00080000000082200083302000800000000F0
:1022000000000000800000006361725461736B0085
:1022100064656661756C745461736B000000000046
:102220000000000001020304060708090000000086
:102230000102030402030405060708090A0B0C0D3A
:102240000E0F10100102030405060708090A0B0C03
:102250000D0E0F100104080249444C450000000017
:04226000C5010008AC
:04226400A1010008CC
:1022680000127A000100000010000000AAAAAAAA21
:04000005080001E10D
:00000001FF
